{
  "transactions": [
    {
      "hash": "0x1011b92d078ced4e37117846ce5747c91e98f0d158f95c7a9b18d9fc537526ba",
      "transactionType": "CALL",
      "contractName": "USDC",
      "contractAddress": "0x9557921b189cb5da63277a51a5321205d9f6bdc6",
      "function": "approve(address,uint256)",
      "arguments": [
        "0x650e583E78e874C6d56d10cB88449a55E78C4D36",
        "115792089237316195423570985008687907853269984665640564039457584007913129639935"
      ],
      "transaction": {
        "from": "0x39ca5312ef96cbf09c43ea7f2ead639c539bf613",
        "to": "0x9557921b189cb5da63277a51a5321205d9f6bdc6",
        "gas": "0x10ab1",
        "value": "0x0",
        "input": "0x095ea7b3000000000000000000000000650e583e78e874c6d56d10cb88449a55e78c4d36ffffffffffffffffffffffffffffffffffffffffffffffffffffffffffffffff",
        "nonce": "0x27",
        "chainId": "0x14a34"
      },
      "additionalContracts": [],
      "isFixedGasLimit": false
    },
    {
      "hash": "0x15a968d5fb4b3ec3bd077ef33d7cf19660a804cfaafcb038356460900a117312",
      "transactionType": "CALL",
      "contractName": "USDT",
      "contractAddress": "0x36138804a07495c7bb8a88718e791acf0b3b5857",
      "function": "approve(address,uint256)",
      "arguments": [
        "0x650e583E78e874C6d56d10cB88449a55E78C4D36",
        "115792089237316195423570985008687907853269984665640564039457584007913129639935"
      ],
      "transaction": {
        "from": "0x39ca5312ef96cbf09c43ea7f2ead639c539bf613",
        "to": "0x36138804a07495c7bb8a88718e791acf0b3b5857",
        "gas": "0x10ab1",
        "value": "0x0",
        "input": "0x095ea7b3000000000000000000000000650e583e78e874c6d56d10cb88449a55e78c4d36ffffffffffffffffffffffffffffffffffffffffffffffffffffffffffffffff",
        "nonce": "0x28",
        "chainId": "0x14a34"
      },
      "additionalContracts": [],
      "isFixedGasLimit": false
    }
  ],
  "receipts": [
    {
      "status": "0x1",
      "cumulativeGasUsed": "0x3a21e",
      "logs": [
        {
          "address": "0x9557921b189cb5da63277a51a5321205d9f6bdc6",
          "topics": [
            "0x8c5be1e5ebec7d5bd14f71427d1e84f3dd0314c0f7b2291e5b200ac8c7c3b925",
            "0x00000000000000000000000039ca5312ef96cbf09c43ea7f2ead639c539bf613",
            "0x000000000000000000000000650e583e78e874c6d56d10cb88449a55e78c4d36"
          ],
          "data": "0xffffffffffffffffffffffffffffffffffffffffffffffffffffffffffffffff",
          "blockHash": "0xf632be3f659d7b9c7036a79f43d86868d94676a98fa2cc97ef7b9f284b830e67",
          "blockNumber": "0x11cb8d5",
          "transactionHash": "0x1011b92d078ced4e37117846ce5747c91e98f0d158f95c7a9b18d9fc537526ba",
          "transactionIndex": "0x2",
          "logIndex": "0x4",
          "removed": false
        }
      ],
      "logsBloom": "0x00000001000000000000000000200000000000000000000000000000000000000000000000000000000000000000000000000000000000000000000000200000000000000000000000000000000000000000000040000000000000000000000000000000000000000000000400000000000000000000000000000000000000000000000000000000000000000000000000000000000000000000000040000000020000000000000000000000000000000000000000000008000000000000000000000000000000000000000000000000000000000000020000004000000000000010000400000000000000000000000000000000000000000000000000000000",
      "type": "0x2",
      "transactionHash": "0x1011b92d078ced4e37117846ce5747c91e98f0d158f95c7a9b18d9fc537526ba",
      "transactionIndex": "0x2",
      "blockHash": "0xf632be3f659d7b9c7036a79f43d86868d94676a98fa2cc97ef7b9f284b830e67",
      "blockNumber": "0x11cb8d5",
      "gasUsed": "0xb65b",
      "effectiveGasPrice": "0xf4346",
      "from": "0x39ca5312ef96cbf09c43ea7f2ead639c539bf613",
      "to": "0x9557921b189cb5da63277a51a5321205d9f6bdc6",
      "contractAddress": null,
      "l1BaseFeeScalar": "0x44d",
      "l1BlobBaseFee": "0x1",
      "l1BlobBaseFeeScalar": "0xa118b",
      "l1Fee": "0xb3eeaec5",
      "l1GasPrice": "0x66243507",
      "l1GasUsed": "0x640"
    },
    {
      "status": "0x1",
      "cumulativeGasUsed": "0x45879",
      "logs": [
        {
          "address": "0x36138804a07495c7bb8a88718e791acf0b3b5857",
          "topics": [
            "0x8c5be1e5ebec7d5bd14f71427d1e84f3dd0314c0f7b2291e5b200ac8c7c3b925",
            "0x00000000000000000000000039ca5312ef96cbf09c43ea7f2ead639c539bf613",
            "0x000000000000000000000000650e583e78e874c6d56d10cb88449a55e78c4d36"
          ],
          "data": "0xffffffffffffffffffffffffffffffffffffffffffffffffffffffffffffffff",
          "blockHash": "0xf632be3f659d7b9c7036a79f43d86868d94676a98fa2cc97ef7b9f284b830e67",
          "blockNumber": "0x11cb8d5",
          "transactionHash": "0x15a968d5fb4b3ec3bd077ef33d7cf19660a804cfaafcb038356460900a117312",
          "transactionIndex": "0x3",
          "logIndex": "0x5",
          "removed": false
        }
      ],
      "logsBloom": "0x00020001000000000000000000200000000000000000000000000000000000000000000000000000000000000000000000000000000000000000000000200000000000000000000000000000000000000000000000000000000000000000000000000000000000000000000400000020000000000000000000000000000000000000000000000000000000000000000000000001000000000000000000000000020000000000000000000000000000000000000000000008000000000000000000000000000000000000000000000000000000000000000000004000000000000010000400000000000000000000000000000000000000000000000000000000",
      "type": "0x2",
      "transactionHash": "0x15a968d5fb4b3ec3bd077ef33d7cf19660a804cfaafcb038356460900a117312",
      "transactionIndex": "0x3",
      "blockHash": "0xf632be3f659d7b9c7036a79f43d86868d94676a98fa2cc97ef7b9f284b830e67",
      "blockNumber": "0x11cb8d5",
      "gasUsed": "0xb65b",
      "effectiveGasPrice": "0xf4346",
      "from": "0x39ca5312ef96cbf09c43ea7f2ead639c539bf613",
      "to": "0x36138804a07495c7bb8a88718e791acf0b3b5857",
      "contractAddress": null,
      "l1BaseFeeScalar": "0x44d",
      "l1BlobBaseFee": "0x1",
      "l1BlobBaseFeeScalar": "0xa118b",
      "l1Fee": "0xb3eeaec5",
      "l1GasPrice": "0x66243507",
      "l1GasUsed": "0x640"
    }
  ],
  "libraries": [],
  "pending": [],
  "returns": {},
  "timestamp": 1733087375,
  "chain": 84532,
  "commit": "2d2835f"
}