{
  "transactions": [
    {
      "hash": "0x46e255a3830261c3220fc1e98b2971f1301e9713f5d8ff602271a607b7748897",
      "transactionType": "CALL",
      "contractName": "USDC",
      "contractAddress": "0x9557921b189cb5da63277a51a5321205d9f6bdc6",
      "function": "approve(address,uint256)",
      "arguments": [
        "0x650e583E78e874C6d56d10cB88449a55E78C4D36",
        "115792089237316195423570985008687907853269984665640564039457584007913129639935"
      ],
      "transaction": {
        "from": "0x39ca5312ef96cbf09c43ea7f2ead639c539bf613",
        "to": "0x9557921b189cb5da63277a51a5321205d9f6bdc6",
        "gas": "0x9080",
        "value": "0x0",
        "input": "0x095ea7b3000000000000000000000000650e583e78e874c6d56d10cb88449a55e78c4d36ffffffffffffffffffffffffffffffffffffffffffffffffffffffffffffffff",
        "nonce": "0x2a",
        "chainId": "0x14a34"
      },
      "additionalContracts": [],
      "isFixedGasLimit": false
    },
    {
      "hash": "0xa81f88b839bb248931a06ae96d85e23f8fb8c56adb153d9c66cac89d985e07d9",
      "transactionType": "CALL",
      "contractName": "USDT",
      "contractAddress": "0x36138804a07495c7bb8a88718e791acf0b3b5857",
      "function": "approve(address,uint256)",
      "arguments": [
        "0x650e583E78e874C6d56d10cB88449a55E78C4D36",
        "115792089237316195423570985008687907853269984665640564039457584007913129639935"
      ],
      "transaction": {
        "from": "0x39ca5312ef96cbf09c43ea7f2ead639c539bf613",
        "to": "0x36138804a07495c7bb8a88718e791acf0b3b5857",
        "gas": "0x9080",
        "value": "0x0",
        "input": "0x095ea7b3000000000000000000000000650e583e78e874c6d56d10cb88449a55e78c4d36ffffffffffffffffffffffffffffffffffffffffffffffffffffffffffffffff",
        "nonce": "0x2b",
        "chainId": "0x14a34"
      },
      "additionalContracts": [],
      "isFixedGasLimit": false
    },
    {
      "hash": "0x1f05c25f18a1e6ac5217120ce8cff5561ec1646c7674f751e46da692a8224ddc",
      "transactionType": "CALL",
      "contractName": "LetSwapPool",
      "contractAddress": "0x650e583e78e874c6d56d10cb88449a55e78c4d36",
      "function": "mint(address,int24,int24,uint128)",
      "arguments": [
        "0x1804c8AB1F12E6bbf3894d4083f33e07309d1f38",
        "-240",
        "240",
        "1000000000000000"
      ],
      "transaction": {
        "from": "0x39ca5312ef96cbf09c43ea7f2ead639c539bf613",
        "to": "0x650e583e78e874c6d56d10cb88449a55e78c4d36",
        "gas": "0x6cd42",
        "value": "0x0",
        "input": "0xb8cca34e0000000000000000000000001804c8ab1f12e6bbf3894d4083f33e07309d1f38ffffffffffffffffffffffffffffffffffffffffffffffffffffffffffffff1000000000000000000000000000000000000000000000000000000000000000f000000000000000000000000000000000000000000000000000038d7ea4c68000",
        "nonce": "0x2c",
        "chainId": "0x14a34"
      },
      "additionalContracts": [],
      "isFixedGasLimit": false
    }
  ],
  "receipts": [
    {
      "status": "0x1",
      "cumulativeGasUsed": "0x1abbc4",
      "logs": [
        {
          "address": "0x9557921b189cb5da63277a51a5321205d9f6bdc6",
          "topics": [
            "0x8c5be1e5ebec7d5bd14f71427d1e84f3dd0314c0f7b2291e5b200ac8c7c3b925",
            "0x00000000000000000000000039ca5312ef96cbf09c43ea7f2ead639c539bf613",
            "0x000000000000000000000000650e583e78e874c6d56d10cb88449a55e78c4d36"
          ],
          "data": "0xffffffffffffffffffffffffffffffffffffffffffffffffffffffffffffffff",
          "blockHash": "0xc5bfcd4f18019244861586f628405956e05abf86736c240309f8f96c4aa648d1",
          "blockNumber": "0x11cb920",
          "transactionHash": "0x46e255a3830261c3220fc1e98b2971f1301e9713f5d8ff602271a607b7748897",
          "transactionIndex": "0x9",
          "logIndex": "0x13",
          "removed": false
        }
      ],
      "logsBloom": "0x00000001000000000000000000200000000000000000000000000000000000000000000000000000000000000000000000000000000000000000000000200000000000000000000000000000000000000000000040000000000000000000000000000000000000000000000400000000000000000000000000000000000000000000000000000000000000000000000000000000000000000000000040000000020000000000000000000000000000000000000000000008000000000000000000000000000000000000000000000000000000000000020000004000000000000010000400000000000000000000000000000000000000000000000000000000",
      "type": "0x2",
      "transactionHash": "0x46e255a3830261c3220fc1e98b2971f1301e9713f5d8ff602271a607b7748897",
      "transactionIndex": "0x9",
      "blockHash": "0xc5bfcd4f18019244861586f628405956e05abf86736c240309f8f96c4aa648d1",
      "blockNumber": "0x11cb920",
      "gasUsed": "0x689f",
      "effectiveGasPrice": "0xece16",
      "from": "0x39ca5312ef96cbf09c43ea7f2ead639c539bf613",
      "to": "0x9557921b189cb5da63277a51a5321205d9f6bdc6",
      "contractAddress": null,
      "l1BaseFeeScalar": "0x44d",
      "l1BlobBaseFee": "0x1",
      "l1BlobBaseFeeScalar": "0xa118b",
      "l1Fee": "0xc6c7c269",
      "l1GasPrice": "0x70d73cec",
      "l1GasUsed": "0x640"
    },
    {
      "status": "0x1",
      "cumulativeGasUsed": "0x1b2463",
      "logs": [
        {
          "address": "0x36138804a07495c7bb8a88718e791acf0b3b5857",
          "topics": [
            "0x8c5be1e5ebec7d5bd14f71427d1e84f3dd0314c0f7b2291e5b200ac8c7c3b925",
            "0x00000000000000000000000039ca5312ef96cbf09c43ea7f2ead639c539bf613",
            "0x000000000000000000000000650e583e78e874c6d56d10cb88449a55e78c4d36"
          ],
          "data": "0xffffffffffffffffffffffffffffffffffffffffffffffffffffffffffffffff",
          "blockHash": "0xc5bfcd4f18019244861586f628405956e05abf86736c240309f8f96c4aa648d1",
          "blockNumber": "0x11cb920",
          "transactionHash": "0xa81f88b839bb248931a06ae96d85e23f8fb8c56adb153d9c66cac89d985e07d9",
          "transactionIndex": "0xa",
          "logIndex": "0x14",
          "removed": false
        }
      ],
      "logsBloom": "0x00020001000000000000000000200000000000000000000000000000000000000000000000000000000000000000000000000000000000000000000000200000000000000000000000000000000000000000000000000000000000000000000000000000000000000000000400000020000000000000000000000000000000000000000000000000000000000000000000000001000000000000000000000000020000000000000000000000000000000000000000000008000000000000000000000000000000000000000000000000000000000000000000004000000000000010000400000000000000000000000000000000000000000000000000000000",
      "type": "0x2",
      "transactionHash": "0xa81f88b839bb248931a06ae96d85e23f8fb8c56adb153d9c66cac89d985e07d9",
      "transactionIndex": "0xa",
      "blockHash": "0xc5bfcd4f18019244861586f628405956e05abf86736c240309f8f96c4aa648d1",
      "blockNumber": "0x11cb920",
      "gasUsed": "0x689f",
      "effectiveGasPrice": "0xece16",
      "from": "0x39ca5312ef96cbf09c43ea7f2ead639c539bf613",
      "to": "0x36138804a07495c7bb8a88718e791acf0b3b5857",
      "contractAddress": null,
      "l1BaseFeeScalar": "0x44d",
      "l1BlobBaseFee": "0x1",
      "l1BlobBaseFeeScalar": "0xa118b",
      "l1Fee": "0xc6c7c269",
      "l1GasPrice": "0x70d73cec",
      "l1GasUsed": "0x640"
    },
    {
      "status": "0x1",
      "cumulativeGasUsed": "0x1fcafe",
      "logs": [
        {
          "address": "0x36138804a07495c7bb8a88718e791acf0b3b5857",
          "topics": [
            "0xddf252ad1be2c89b69c2b068fc378daa952ba7f163c4a11628f55a4df523b3ef",
            "0x00000000000000000000000039ca5312ef96cbf09c43ea7f2ead639c539bf613",
            "0x000000000000000000000000650e583e78e874c6d56d10cb88449a55e78c4d36"
          ],
          "data": "0x00000000000000000000000000000000000000000000000000000ad921fbd9b0",
          "blockHash": "0xc5bfcd4f18019244861586f628405956e05abf86736c240309f8f96c4aa648d1",
          "blockNumber": "0x11cb920",
          "transactionHash": "0x1f05c25f18a1e6ac5217120ce8cff5561ec1646c7674f751e46da692a8224ddc",
          "transactionIndex": "0xb",
          "logIndex": "0x15",
          "removed": false
        },
        {
          "address": "0x9557921b189cb5da63277a51a5321205d9f6bdc6",
          "topics": [
            "0xddf252ad1be2c89b69c2b068fc378daa952ba7f163c4a11628f55a4df523b3ef",
            "0x00000000000000000000000039ca5312ef96cbf09c43ea7f2ead639c539bf613",
            "0x000000000000000000000000650e583e78e874c6d56d10cb88449a55e78c4d36"
          ],
          "data": "0x00000000000000000000000000000000000000000000000000000ad921fbd9b0",
          "blockHash": "0xc5bfcd4f18019244861586f628405956e05abf86736c240309f8f96c4aa648d1",
          "blockNumber": "0x11cb920",
          "transactionHash": "0x1f05c25f18a1e6ac5217120ce8cff5561ec1646c7674f751e46da692a8224ddc",
          "transactionIndex": "0xb",
          "logIndex": "0x16",
          "removed": false
        }
      ],
      "logsBloom": "0x00020001000000000000000000200000000000000000000000000000000000000000000000000000000000000000000000000000000000000000000000000000000000000000000000000008000000000000000040000000000000000000000000000000000000000000000400000020000000000000000000000010000000000000000000000000000000000000000000000001000000000000000040000000000000000000000000000000000000000000000000000008000000000000000000000002000000000000000000000000000000000000020000004000000000000000000400000000000000000000000000000000000000000000000000000000",
      "type": "0x2",
      "transactionHash": "0x1f05c25f18a1e6ac5217120ce8cff5561ec1646c7674f751e46da692a8224ddc",
      "transactionIndex": "0xb",
      "blockHash": "0xc5bfcd4f18019244861586f628405956e05abf86736c240309f8f96c4aa648d1",
      "blockNumber": "0x11cb920",
      "gasUsed": "0x4a69b",
      "effectiveGasPrice": "0xece16",
      "from": "0x39ca5312ef96cbf09c43ea7f2ead639c539bf613",
      "to": "0x650e583e78e874c6d56d10cb88449a55e78c4d36",
      "contractAddress": null,
      "l1BaseFeeScalar": "0x44d",
      "l1BlobBaseFee": "0x1",
      "l1BlobBaseFeeScalar": "0xa118b",
      "l1Fee": "0xc9596ecd",
      "l1GasPrice": "0x70d73cec",
      "l1GasUsed": "0x654"
    }
  ],
  "libraries": [],
  "pending": [],
  "returns": {},
  "timestamp": 1733087527,
  "chain": 84532,
  "commit": "2d2835f"
}